{
  "_format": "hh-sol-artifact-1",
  "contractName": "Airdrop",
  "sourceName": "contracts/Airdrop.sol",
  "abi": [
    {
      "inputs": [
        {
          "internalType": "bytes32",
          "name": "_merkleRoot",
          "type": "bytes32"
        },
        {
          "internalType": "address",
          "name": "_tokenAddress",
          "type": "address"
        }
      ],
      "stateMutability": "nonpayable",
      "type": "constructor"
    },
    {
      "inputs": [
        {
          "internalType": "address",
          "name": "owner",
          "type": "address"
        }
      ],
      "name": "OwnableInvalidOwner",
      "type": "error"
    },
    {
      "inputs": [
        {
          "internalType": "address",
          "name": "account",
          "type": "address"
        }
      ],
      "name": "OwnableUnauthorizedAccount",
      "type": "error"
    },
    {
      "anonymous": false,
      "inputs": [
        {
          "indexed": true,
          "internalType": "address",
          "name": "account",
          "type": "address"
        },
        {
          "indexed": false,
          "internalType": "uint256",
          "name": "amount",
          "type": "uint256"
        }
      ],
      "name": "Claimed",
      "type": "event"
    },
    {
      "anonymous": false,
      "inputs": [
        {
          "indexed": true,
          "internalType": "address",
          "name": "previousOwner",
          "type": "address"
        },
        {
          "indexed": true,
          "internalType": "address",
          "name": "newOwner",
          "type": "address"
        }
      ],
      "name": "OwnershipTransferred",
      "type": "event"
    },
    {
      "inputs": [
        {
          "internalType": "bytes32[]",
          "name": "merkleProof",
          "type": "bytes32[]"
        },
        {
          "internalType": "uint256",
          "name": "totalAmount",
          "type": "uint256"
        },
        {
          "internalType": "uint256",
          "name": "partialAmount",
          "type": "uint256"
        }
      ],
      "name": "claim",
      "outputs": [],
      "stateMutability": "nonpayable",
      "type": "function"
    },
    {
      "inputs": [
        {
          "internalType": "address",
          "name": "_address",
          "type": "address"
        }
      ],
      "name": "getClaimedAmount",
      "outputs": [
        {
          "internalType": "uint256",
          "name": "",
          "type": "uint256"
        }
      ],
      "stateMutability": "view",
      "type": "function"
    },
    {
      "inputs": [],
      "name": "getPasued",
      "outputs": [
        {
          "internalType": "bool",
          "name": "",
          "type": "bool"
        }
      ],
      "stateMutability": "view",
      "type": "function"
    },
    {
      "inputs": [],
      "name": "getTotalClaimedAmount",
      "outputs": [
        {
          "internalType": "uint256",
          "name": "",
          "type": "uint256"
        }
      ],
      "stateMutability": "view",
      "type": "function"
    },
    {
      "inputs": [],
      "name": "owner",
      "outputs": [
        {
          "internalType": "address",
          "name": "",
          "type": "address"
        }
      ],
      "stateMutability": "view",
      "type": "function"
    },
    {
      "inputs": [],
      "name": "pause",
      "outputs": [],
      "stateMutability": "nonpayable",
      "type": "function"
    },
    {
      "inputs": [],
      "name": "renounceOwnership",
      "outputs": [],
      "stateMutability": "nonpayable",
      "type": "function"
    },
    {
      "inputs": [],
      "name": "resume",
      "outputs": [],
      "stateMutability": "nonpayable",
      "type": "function"
    },
    {
      "inputs": [],
      "name": "token",
      "outputs": [
        {
          "internalType": "contract IERC20",
          "name": "",
          "type": "address"
        }
      ],
      "stateMutability": "view",
      "type": "function"
    },
    {
      "inputs": [],
      "name": "totalClaimedAmount",
      "outputs": [
        {
          "internalType": "uint256",
          "name": "",
          "type": "uint256"
        }
      ],
      "stateMutability": "view",
      "type": "function"
    },
    {
      "inputs": [
        {
          "internalType": "address",
          "name": "newOwner",
          "type": "address"
        }
      ],
      "name": "transferOwnership",
      "outputs": [],
      "stateMutability": "nonpayable",
      "type": "function"
    },
    {
      "inputs": [
        {
          "internalType": "bytes32",
          "name": "newRoot",
          "type": "bytes32"
        }
      ],
      "name": "updateMerkleRoot",
      "outputs": [],
      "stateMutability": "nonpayable",
      "type": "function"
    },
    {
      "inputs": [
        {
          "internalType": "address",
          "name": "",
          "type": "address"
        }
      ],
      "name": "withdrawnAmount",
      "outputs": [
        {
          "internalType": "uint256",
          "name": "",
          "type": "uint256"
        }
      ],
      "stateMutability": "view",
      "type": "function"
    },
    {
      "stateMutability": "payable",
      "type": "receive"
    }
  ],
  "bytecode": "0x60806040523480156200001157600080fd5b50604051620015b9380380620015b9833981810160405281019062000037919062000293565b33600073ffffffffffffffffffffffffffffffffffffffff168173ffffffffffffffffffffffffffffffffffffffff1603620000ad5760006040517f1e4fbdf7000000000000000000000000000000000000000000000000000000008152600401620000a49190620002eb565b60405180910390fd5b620000be816200012a60201b60201c565b508160018190555080600460006101000a81548173ffffffffffffffffffffffffffffffffffffffff021916908373ffffffffffffffffffffffffffffffffffffffff1602179055506000600260006101000a81548160ff021916908315150217905550505062000308565b60008060009054906101000a900473ffffffffffffffffffffffffffffffffffffffff169050816000806101000a81548173ffffffffffffffffffffffffffffffffffffffff021916908373ffffffffffffffffffffffffffffffffffffffff1602179055508173ffffffffffffffffffffffffffffffffffffffff168173ffffffffffffffffffffffffffffffffffffffff167f8be0079c531659141344cd1fd0a4f28419497f9722a3daafe3b4186f6b6457e060405160405180910390a35050565b600080fd5b6000819050919050565b6200020881620001f3565b81146200021457600080fd5b50565b6000815190506200022881620001fd565b92915050565b600073ffffffffffffffffffffffffffffffffffffffff82169050919050565b60006200025b826200022e565b9050919050565b6200026d816200024e565b81146200027957600080fd5b50565b6000815190506200028d8162000262565b92915050565b60008060408385031215620002ad57620002ac620001ee565b5b6000620002bd8582860162000217565b9250506020620002d0858286016200027c565b9150509250929050565b620002e5816200024e565b82525050565b6000602082019050620003026000830184620002da565b92915050565b6112a180620003186000396000f3fe6080604052600436106100c65760003560e01c80638df40be81161007f578063d4a6da0911610059578063d4a6da091461023b578063f2fde38b14610264578063f5de59c01461028d578063fc0c546a146102b8576100cd565b80638df40be8146101a85780639661cb0d146101e5578063cf6edffb14610210576100cd565b8063046f7da2146100d257806310b20139146100e95780634783f0ef14610126578063715018a61461014f5780638456cb59146101665780638da5cb5b1461017d576100cd565b366100cd57005b600080fd5b3480156100de57600080fd5b506100e76102e3565b005b3480156100f557600080fd5b50610110600480360381019061010b9190610b27565b610308565b60405161011d9190610b6d565b60405180910390f35b34801561013257600080fd5b5061014d60048036038101906101489190610bbe565b610320565b005b34801561015b57600080fd5b50610164610332565b005b34801561017257600080fd5b5061017b610346565b005b34801561018957600080fd5b5061019261036b565b60405161019f9190610bfa565b60405180910390f35b3480156101b457600080fd5b506101cf60048036038101906101ca9190610b27565b610394565b6040516101dc9190610b6d565b60405180910390f35b3480156101f157600080fd5b506101fa6103dd565b6040516102079190610b6d565b60405180910390f35b34801561021c57600080fd5b506102256103e3565b6040516102329190610c30565b60405180910390f35b34801561024757600080fd5b50610262600480360381019061025d9190610cdc565b6103fa565b005b34801561027057600080fd5b5061028b60048036038101906102869190610b27565b6107e6565b005b34801561029957600080fd5b506102a261086c565b6040516102af9190610b6d565b60405180910390f35b3480156102c457600080fd5b506102cd610876565b6040516102da9190610daf565b60405180910390f35b6102eb61089c565b6000600260006101000a81548160ff021916908315150217905550565b60036020528060005260406000206000915090505481565b61032861089c565b8060018190555050565b61033a61089c565b6103446000610923565b565b61034e61089c565b6001600260006101000a81548160ff021916908315150217905550565b60008060009054906101000a900473ffffffffffffffffffffffffffffffffffffffff16905090565b6000600360008373ffffffffffffffffffffffffffffffffffffffff1673ffffffffffffffffffffffffffffffffffffffff168152602001908152602001600020549050919050565b60055481565b6000600260009054906101000a900460ff16905090565b600260009054906101000a900460ff161561044a576040517f08c379a000000000000000000000000000000000000000000000000000000000815260040161044190610e27565b60405180910390fd5b8181111561048d576040517f08c379a000000000000000000000000000000000000000000000000000000000815260040161048490610eb9565b60405180910390fd5b600033836040516020016104a2929190610ed9565b604051602081830303815290604052805190602001206040516020016104c89190610f23565b60405160208183030381529060405280519060200120905061052e858580806020026020016040519081016040528093929190818152602001838360200280828437600081840152601f19601f82011690508083019250505050505050600154836109e7565b61056d576040517f08c379a000000000000000000000000000000000000000000000000000000000815260040161056490610f8a565b60405180910390fd5b6000600360003373ffffffffffffffffffffffffffffffffffffffff1673ffffffffffffffffffffffffffffffffffffffff16815260200190815260200160002054846105ba9190610fd9565b9050808311156105ff576040517f08c379a00000000000000000000000000000000000000000000000000000000081526004016105f69061107f565b60405180910390fd5b60008111610642576040517f08c379a0000000000000000000000000000000000000000000000000000000008152600401610639906110eb565b60405180910390fd5b82600360003373ffffffffffffffffffffffffffffffffffffffff1673ffffffffffffffffffffffffffffffffffffffff1681526020019081526020016000206000828254610691919061110b565b92505081905550600460009054906101000a900473ffffffffffffffffffffffffffffffffffffffff1673ffffffffffffffffffffffffffffffffffffffff1663a9059cbb33856040518363ffffffff1660e01b81526004016106f5929190610ed9565b6020604051808303816000875af1158015610714573d6000803e3d6000fd5b505050506040513d601f19601f82011682018060405250810190610738919061116b565b610777576040517f08c379a000000000000000000000000000000000000000000000000000000000815260040161076e906111e4565b60405180910390fd5b8260056000828254610789919061110b565b925050819055503373ffffffffffffffffffffffffffffffffffffffff167fd8138f8a3f377c5259ca548e70e4c2de94f129f5a11036a15b69513cba2b426a846040516107d69190610b6d565b60405180910390a2505050505050565b6107ee61089c565b600073ffffffffffffffffffffffffffffffffffffffff168173ffffffffffffffffffffffffffffffffffffffff16036108605760006040517f1e4fbdf70000000000000000000000000000000000000000000000000000000081526004016108579190610bfa565b60405180910390fd5b61086981610923565b50565b6000600554905090565b600460009054906101000a900473ffffffffffffffffffffffffffffffffffffffff1681565b6108a46109fe565b73ffffffffffffffffffffffffffffffffffffffff166108c261036b565b73ffffffffffffffffffffffffffffffffffffffff1614610921576108e56109fe565b6040517f118cdaa70000000000000000000000000000000000000000000000000000000081526004016109189190610bfa565b60405180910390fd5b565b60008060009054906101000a900473ffffffffffffffffffffffffffffffffffffffff169050816000806101000a81548173ffffffffffffffffffffffffffffffffffffffff021916908373ffffffffffffffffffffffffffffffffffffffff1602179055508173ffffffffffffffffffffffffffffffffffffffff168173ffffffffffffffffffffffffffffffffffffffff167f8be0079c531659141344cd1fd0a4f28419497f9722a3daafe3b4186f6b6457e060405160405180910390a35050565b6000826109f48584610a06565b1490509392505050565b600033905090565b60008082905060005b8451811015610a4b57610a3c82868381518110610a2f57610a2e611204565b5b6020026020010151610a56565b91508080600101915050610a0f565b508091505092915050565b6000818310610a8d578183604051602001610a72929190611242565b60405160208183030381529060405280519060200120610ab7565b8282604051602001610aa0929190611242565b604051602081830303815290604052805190602001205b905092915050565b600080fd5b600080fd5b600073ffffffffffffffffffffffffffffffffffffffff82169050919050565b6000610af482610ac9565b9050919050565b610b0481610ae9565b8114610b0f57600080fd5b50565b600081359050610b2181610afb565b92915050565b600060208284031215610b3d57610b3c610abf565b5b6000610b4b84828501610b12565b91505092915050565b6000819050919050565b610b6781610b54565b82525050565b6000602082019050610b826000830184610b5e565b92915050565b6000819050919050565b610b9b81610b88565b8114610ba657600080fd5b50565b600081359050610bb881610b92565b92915050565b600060208284031215610bd457610bd3610abf565b5b6000610be284828501610ba9565b91505092915050565b610bf481610ae9565b82525050565b6000602082019050610c0f6000830184610beb565b92915050565b60008115159050919050565b610c2a81610c15565b82525050565b6000602082019050610c456000830184610c21565b92915050565b600080fd5b600080fd5b600080fd5b60008083601f840112610c7057610c6f610c4b565b5b8235905067ffffffffffffffff811115610c8d57610c8c610c50565b5b602083019150836020820283011115610ca957610ca8610c55565b5b9250929050565b610cb981610b54565b8114610cc457600080fd5b50565b600081359050610cd681610cb0565b92915050565b60008060008060608587031215610cf657610cf5610abf565b5b600085013567ffffffffffffffff811115610d1457610d13610ac4565b5b610d2087828801610c5a565b94509450506020610d3387828801610cc7565b9250506040610d4487828801610cc7565b91505092959194509250565b6000819050919050565b6000610d75610d70610d6b84610ac9565b610d50565b610ac9565b9050919050565b6000610d8782610d5a565b9050919050565b6000610d9982610d7c565b9050919050565b610da981610d8e565b82525050565b6000602082019050610dc46000830184610da0565b92915050565b600082825260208201905092915050565b7f436f6e7472616374206973207061757365640000000000000000000000000000600082015250565b6000610e11601283610dca565b9150610e1c82610ddb565b602082019050919050565b60006020820190508181036000830152610e4081610e04565b9050919050565b7f5061727469616c20616d6f756e742069732067726561746572207468616e207460008201527f6f74616c20616d6f756e74000000000000000000000000000000000000000000602082015250565b6000610ea3602b83610dca565b9150610eae82610e47565b604082019050919050565b60006020820190508181036000830152610ed281610e96565b9050919050565b6000604082019050610eee6000830185610beb565b610efb6020830184610b5e565b9392505050565b6000819050919050565b610f1d610f1882610b88565b610f02565b82525050565b6000610f2f8284610f0c565b60208201915081905092915050565b7f496e76616c6964204d65726b6c652070726f6f66000000000000000000000000600082015250565b6000610f74601483610dca565b9150610f7f82610f3e565b602082019050919050565b60006020820190508181036000830152610fa381610f67565b9050919050565b7f4e487b7100000000000000000000000000000000000000000000000000000000600052601160045260246000fd5b6000610fe482610b54565b9150610fef83610b54565b925082820390508181111561100757611006610faa565b5b92915050565b7f5061727469616c20616d6f756e742069732067726561746572207468616e207260008201527f656d61696e696e6720616d6f756e740000000000000000000000000000000000602082015250565b6000611069602f83610dca565b91506110748261100d565b604082019050919050565b600060208201905081810360008301526110988161105c565b9050919050565b7f4e6f206d6f726520746f6b656e7320746f20636c61696d000000000000000000600082015250565b60006110d5601783610dca565b91506110e08261109f565b602082019050919050565b60006020820190508181036000830152611104816110c8565b9050919050565b600061111682610b54565b915061112183610b54565b925082820190508082111561113957611138610faa565b5b92915050565b61114881610c15565b811461115357600080fd5b50565b6000815190506111658161113f565b92915050565b60006020828403121561118157611180610abf565b5b600061118f84828501611156565b91505092915050565b7f546f6b656e207472616e73666572206661696c65640000000000000000000000600082015250565b60006111ce601583610dca565b91506111d982611198565b602082019050919050565b600060208201905081810360008301526111fd816111c1565b9050919050565b7f4e487b7100000000000000000000000000000000000000000000000000000000600052603260045260246000fd5b61123c81610b88565b82525050565b60006040820190506112576000830185611233565b6112646020830184611233565b939250505056fea26469706673582212205c2c5d50c823bcdbee60274f78cfefcd829d9dd61fae07f525c6a5d378dbf09864736f6c63430008180033",
  "linkReferences": {},
  "deployedLinkReferences": {}
}