{
  "_format": "hh-sol-artifact-1",
  "contractName": "Airdrop",
  "sourceName": "contracts/Airdrop.sol",
  "abi": [
    {
      "inputs": [
        {
          "internalType": "bytes32",
          "name": "_merkleRoot",
          "type": "bytes32"
        },
        {
          "internalType": "address",
          "name": "_tokenAddress",
          "type": "address"
        }
      ],
      "stateMutability": "nonpayable",
      "type": "constructor"
    },
    {
      "inputs": [
        {
          "internalType": "address",
          "name": "owner",
          "type": "address"
        }
      ],
      "name": "OwnableInvalidOwner",
      "type": "error"
    },
    {
      "inputs": [
        {
          "internalType": "address",
          "name": "account",
          "type": "address"
        }
      ],
      "name": "OwnableUnauthorizedAccount",
      "type": "error"
    },
    {
      "anonymous": false,
      "inputs": [
        {
          "indexed": true,
          "internalType": "address",
          "name": "previousOwner",
          "type": "address"
        },
        {
          "indexed": true,
          "internalType": "address",
          "name": "newOwner",
          "type": "address"
        }
      ],
      "name": "OwnershipTransferred",
      "type": "event"
    },
    {
      "inputs": [
        {
          "internalType": "bytes32[]",
          "name": "merkleProof",
          "type": "bytes32[]"
        },
        {
          "internalType": "uint256",
          "name": "totalAmount",
          "type": "uint256"
        },
        {
          "internalType": "uint256",
          "name": "partialAmount",
          "type": "uint256"
        }
      ],
      "name": "claim",
      "outputs": [],
      "stateMutability": "nonpayable",
      "type": "function"
    },
    {
      "inputs": [
        {
          "internalType": "address",
          "name": "_address",
          "type": "address"
        }
      ],
      "name": "getClaimedAmount",
      "outputs": [
        {
          "internalType": "uint256",
          "name": "",
          "type": "uint256"
        }
      ],
      "stateMutability": "view",
      "type": "function"
    },
    {
      "inputs": [],
      "name": "owner",
      "outputs": [
        {
          "internalType": "address",
          "name": "",
          "type": "address"
        }
      ],
      "stateMutability": "view",
      "type": "function"
    },
    {
      "inputs": [],
      "name": "pause",
      "outputs": [],
      "stateMutability": "nonpayable",
      "type": "function"
    },
    {
      "inputs": [],
      "name": "renounceOwnership",
      "outputs": [],
      "stateMutability": "nonpayable",
      "type": "function"
    },
    {
      "inputs": [],
      "name": "resume",
      "outputs": [],
      "stateMutability": "nonpayable",
      "type": "function"
    },
    {
      "inputs": [],
      "name": "token",
      "outputs": [
        {
          "internalType": "contract IERC20",
          "name": "",
          "type": "address"
        }
      ],
      "stateMutability": "view",
      "type": "function"
    },
    {
      "inputs": [
        {
          "internalType": "address",
          "name": "newOwner",
          "type": "address"
        }
      ],
      "name": "transferOwnership",
      "outputs": [],
      "stateMutability": "nonpayable",
      "type": "function"
    },
    {
      "inputs": [
        {
          "internalType": "bytes32",
          "name": "newRoot",
          "type": "bytes32"
        }
      ],
      "name": "updateMerkleRoot",
      "outputs": [],
      "stateMutability": "nonpayable",
      "type": "function"
    },
    {
      "inputs": [
        {
          "internalType": "address",
          "name": "",
          "type": "address"
        }
      ],
      "name": "withdrawnAmount",
      "outputs": [
        {
          "internalType": "uint256",
          "name": "",
          "type": "uint256"
        }
      ],
      "stateMutability": "view",
      "type": "function"
    },
    {
      "stateMutability": "payable",
      "type": "receive"
    }
  ],
  "bytecode": "0x60806040523480156200001157600080fd5b506040516200144f3803806200144f833981810160405281019062000037919062000293565b33600073ffffffffffffffffffffffffffffffffffffffff168173ffffffffffffffffffffffffffffffffffffffff1603620000ad5760006040517f1e4fbdf7000000000000000000000000000000000000000000000000000000008152600401620000a49190620002eb565b60405180910390fd5b620000be816200012a60201b60201c565b508160018190555080600460006101000a81548173ffffffffffffffffffffffffffffffffffffffff021916908373ffffffffffffffffffffffffffffffffffffffff1602179055506000600260006101000a81548160ff021916908315150217905550505062000308565b60008060009054906101000a900473ffffffffffffffffffffffffffffffffffffffff169050816000806101000a81548173ffffffffffffffffffffffffffffffffffffffff021916908373ffffffffffffffffffffffffffffffffffffffff1602179055508173ffffffffffffffffffffffffffffffffffffffff168173ffffffffffffffffffffffffffffffffffffffff167f8be0079c531659141344cd1fd0a4f28419497f9722a3daafe3b4186f6b6457e060405160405180910390a35050565b600080fd5b6000819050919050565b6200020881620001f3565b81146200021457600080fd5b50565b6000815190506200022881620001fd565b92915050565b600073ffffffffffffffffffffffffffffffffffffffff82169050919050565b60006200025b826200022e565b9050919050565b6200026d816200024e565b81146200027957600080fd5b50565b6000815190506200028d8162000262565b92915050565b60008060408385031215620002ad57620002ac620001ee565b5b6000620002bd8582860162000217565b9250506020620002d0858286016200027c565b9150509250929050565b620002e5816200024e565b82525050565b6000602082019050620003026000830184620002da565b92915050565b61113780620003186000396000f3fe6080604052600436106100955760003560e01c80638da5cb5b116100595780638da5cb5b1461014c5780638df40be814610177578063d4a6da09146101b4578063f2fde38b146101dd578063fc0c546a146102065761009c565b8063046f7da2146100a157806310b20139146100b85780634783f0ef146100f5578063715018a61461011e5780638456cb59146101355761009c565b3661009c57005b600080fd5b3480156100ad57600080fd5b506100b6610231565b005b3480156100c457600080fd5b506100df60048036038101906100da91906109e7565b610256565b6040516100ec9190610a2d565b60405180910390f35b34801561010157600080fd5b5061011c60048036038101906101179190610a7e565b61026e565b005b34801561012a57600080fd5b50610133610280565b005b34801561014157600080fd5b5061014a610294565b005b34801561015857600080fd5b506101616102b9565b60405161016e9190610aba565b60405180910390f35b34801561018357600080fd5b5061019e600480360381019061019991906109e7565b6102e2565b6040516101ab9190610a2d565b60405180910390f35b3480156101c057600080fd5b506101db60048036038101906101d69190610b66565b61032b565b005b3480156101e957600080fd5b5061020460048036038101906101ff91906109e7565b6106b0565b005b34801561021257600080fd5b5061021b610736565b6040516102289190610c39565b60405180910390f35b61023961075c565b6000600260006101000a81548160ff021916908315150217905550565b60036020528060005260406000206000915090505481565b61027661075c565b8060018190555050565b61028861075c565b61029260006107e3565b565b61029c61075c565b6001600260006101000a81548160ff021916908315150217905550565b60008060009054906101000a900473ffffffffffffffffffffffffffffffffffffffff16905090565b6000600360008373ffffffffffffffffffffffffffffffffffffffff1673ffffffffffffffffffffffffffffffffffffffff168152602001908152602001600020549050919050565b600260009054906101000a900460ff161561037b576040517f08c379a000000000000000000000000000000000000000000000000000000000815260040161037290610cb1565b60405180910390fd5b818111156103be576040517f08c379a00000000000000000000000000000000000000000000000000000000081526004016103b590610d43565b60405180910390fd5b600033836040516020016103d3929190610d63565b604051602081830303815290604052805190602001206040516020016103f99190610dad565b60405160208183030381529060405280519060200120905061045f858580806020026020016040519081016040528093929190818152602001838360200280828437600081840152601f19601f82011690508083019250505050505050600154836108a7565b61049e576040517f08c379a000000000000000000000000000000000000000000000000000000000815260040161049590610e14565b60405180910390fd5b6000600360003373ffffffffffffffffffffffffffffffffffffffff1673ffffffffffffffffffffffffffffffffffffffff16815260200190815260200160002054846104eb9190610e63565b905080831115610530576040517f08c379a000000000000000000000000000000000000000000000000000000000815260040161052790610f09565b60405180910390fd5b60008111610573576040517f08c379a000000000000000000000000000000000000000000000000000000000815260040161056a90610f75565b60405180910390fd5b82600360003373ffffffffffffffffffffffffffffffffffffffff1673ffffffffffffffffffffffffffffffffffffffff16815260200190815260200160002060008282546105c29190610f95565b92505081905550600460009054906101000a900473ffffffffffffffffffffffffffffffffffffffff1673ffffffffffffffffffffffffffffffffffffffff1663a9059cbb33856040518363ffffffff1660e01b8152600401610626929190610d63565b6020604051808303816000875af1158015610645573d6000803e3d6000fd5b505050506040513d601f19601f820116820180604052508101906106699190611001565b6106a8576040517f08c379a000000000000000000000000000000000000000000000000000000000815260040161069f9061107a565b60405180910390fd5b505050505050565b6106b861075c565b600073ffffffffffffffffffffffffffffffffffffffff168173ffffffffffffffffffffffffffffffffffffffff160361072a5760006040517f1e4fbdf70000000000000000000000000000000000000000000000000000000081526004016107219190610aba565b60405180910390fd5b610733816107e3565b50565b600460009054906101000a900473ffffffffffffffffffffffffffffffffffffffff1681565b6107646108be565b73ffffffffffffffffffffffffffffffffffffffff166107826102b9565b73ffffffffffffffffffffffffffffffffffffffff16146107e1576107a56108be565b6040517f118cdaa70000000000000000000000000000000000000000000000000000000081526004016107d89190610aba565b60405180910390fd5b565b60008060009054906101000a900473ffffffffffffffffffffffffffffffffffffffff169050816000806101000a81548173ffffffffffffffffffffffffffffffffffffffff021916908373ffffffffffffffffffffffffffffffffffffffff1602179055508173ffffffffffffffffffffffffffffffffffffffff168173ffffffffffffffffffffffffffffffffffffffff167f8be0079c531659141344cd1fd0a4f28419497f9722a3daafe3b4186f6b6457e060405160405180910390a35050565b6000826108b485846108c6565b1490509392505050565b600033905090565b60008082905060005b845181101561090b576108fc828683815181106108ef576108ee61109a565b5b6020026020010151610916565b915080806001019150506108cf565b508091505092915050565b600081831061094d5781836040516020016109329291906110d8565b60405160208183030381529060405280519060200120610977565b82826040516020016109609291906110d8565b604051602081830303815290604052805190602001205b905092915050565b600080fd5b600080fd5b600073ffffffffffffffffffffffffffffffffffffffff82169050919050565b60006109b482610989565b9050919050565b6109c4816109a9565b81146109cf57600080fd5b50565b6000813590506109e1816109bb565b92915050565b6000602082840312156109fd576109fc61097f565b5b6000610a0b848285016109d2565b91505092915050565b6000819050919050565b610a2781610a14565b82525050565b6000602082019050610a426000830184610a1e565b92915050565b6000819050919050565b610a5b81610a48565b8114610a6657600080fd5b50565b600081359050610a7881610a52565b92915050565b600060208284031215610a9457610a9361097f565b5b6000610aa284828501610a69565b91505092915050565b610ab4816109a9565b82525050565b6000602082019050610acf6000830184610aab565b92915050565b600080fd5b600080fd5b600080fd5b60008083601f840112610afa57610af9610ad5565b5b8235905067ffffffffffffffff811115610b1757610b16610ada565b5b602083019150836020820283011115610b3357610b32610adf565b5b9250929050565b610b4381610a14565b8114610b4e57600080fd5b50565b600081359050610b6081610b3a565b92915050565b60008060008060608587031215610b8057610b7f61097f565b5b600085013567ffffffffffffffff811115610b9e57610b9d610984565b5b610baa87828801610ae4565b94509450506020610bbd87828801610b51565b9250506040610bce87828801610b51565b91505092959194509250565b6000819050919050565b6000610bff610bfa610bf584610989565b610bda565b610989565b9050919050565b6000610c1182610be4565b9050919050565b6000610c2382610c06565b9050919050565b610c3381610c18565b82525050565b6000602082019050610c4e6000830184610c2a565b92915050565b600082825260208201905092915050565b7f436f6e7472616374206973207061757365640000000000000000000000000000600082015250565b6000610c9b601283610c54565b9150610ca682610c65565b602082019050919050565b60006020820190508181036000830152610cca81610c8e565b9050919050565b7f5061727469616c20616d6f756e742069732067726561746572207468616e207460008201527f6f74616c20616d6f756e74000000000000000000000000000000000000000000602082015250565b6000610d2d602b83610c54565b9150610d3882610cd1565b604082019050919050565b60006020820190508181036000830152610d5c81610d20565b9050919050565b6000604082019050610d786000830185610aab565b610d856020830184610a1e565b9392505050565b6000819050919050565b610da7610da282610a48565b610d8c565b82525050565b6000610db98284610d96565b60208201915081905092915050565b7f496e76616c6964204d65726b6c652070726f6f66000000000000000000000000600082015250565b6000610dfe601483610c54565b9150610e0982610dc8565b602082019050919050565b60006020820190508181036000830152610e2d81610df1565b9050919050565b7f4e487b7100000000000000000000000000000000000000000000000000000000600052601160045260246000fd5b6000610e6e82610a14565b9150610e7983610a14565b9250828203905081811115610e9157610e90610e34565b5b92915050565b7f5061727469616c20616d6f756e742069732067726561746572207468616e207260008201527f656d61696e696e6720616d6f756e740000000000000000000000000000000000602082015250565b6000610ef3602f83610c54565b9150610efe82610e97565b604082019050919050565b60006020820190508181036000830152610f2281610ee6565b9050919050565b7f4e6f206d6f726520746f6b656e7320746f20636c61696d000000000000000000600082015250565b6000610f5f601783610c54565b9150610f6a82610f29565b602082019050919050565b60006020820190508181036000830152610f8e81610f52565b9050919050565b6000610fa082610a14565b9150610fab83610a14565b9250828201905080821115610fc357610fc2610e34565b5b92915050565b60008115159050919050565b610fde81610fc9565b8114610fe957600080fd5b50565b600081519050610ffb81610fd5565b92915050565b6000602082840312156110175761101661097f565b5b600061102584828501610fec565b91505092915050565b7f546f6b656e207472616e73666572206661696c65640000000000000000000000600082015250565b6000611064601583610c54565b915061106f8261102e565b602082019050919050565b6000602082019050818103600083015261109381611057565b9050919050565b7f4e487b7100000000000000000000000000000000000000000000000000000000600052603260045260246000fd5b6110d281610a48565b82525050565b60006040820190506110ed60008301856110c9565b6110fa60208301846110c9565b939250505056fea26469706673582212208d9f36acf78f76b693f58b2688300511e0f90740c7109b8e23ca1365c095688364736f6c63430008180033",
  "linkReferences": {},
  "deployedLinkReferences": {}
}