{
  "_format": "hh-sol-artifact-1",
  "contractName": "Airdrop",
  "sourceName": "contracts/Airdrop.sol",
  "abi": [
    {
      "inputs": [
        {
          "internalType": "bytes32",
          "name": "_merkleRoot",
          "type": "bytes32"
        },
        {
          "internalType": "address",
          "name": "_tokenAddress",
          "type": "address"
        }
      ],
      "stateMutability": "nonpayable",
      "type": "constructor"
    },
    {
      "inputs": [
        {
          "internalType": "address",
          "name": "owner",
          "type": "address"
        }
      ],
      "name": "OwnableInvalidOwner",
      "type": "error"
    },
    {
      "inputs": [
        {
          "internalType": "address",
          "name": "account",
          "type": "address"
        }
      ],
      "name": "OwnableUnauthorizedAccount",
      "type": "error"
    },
    {
      "anonymous": false,
      "inputs": [
        {
          "indexed": true,
          "internalType": "address",
          "name": "previousOwner",
          "type": "address"
        },
        {
          "indexed": true,
          "internalType": "address",
          "name": "newOwner",
          "type": "address"
        }
      ],
      "name": "OwnershipTransferred",
      "type": "event"
    },
    {
      "inputs": [
        {
          "internalType": "bytes32[]",
          "name": "merkleProof",
          "type": "bytes32[]"
        },
        {
          "internalType": "uint256",
          "name": "amount",
          "type": "uint256"
        }
      ],
      "name": "claim",
      "outputs": [],
      "stateMutability": "nonpayable",
      "type": "function"
    },
    {
      "inputs": [],
      "name": "owner",
      "outputs": [
        {
          "internalType": "address",
          "name": "",
          "type": "address"
        }
      ],
      "stateMutability": "view",
      "type": "function"
    },
    {
      "inputs": [],
      "name": "renounceOwnership",
      "outputs": [],
      "stateMutability": "nonpayable",
      "type": "function"
    },
    {
      "inputs": [],
      "name": "token",
      "outputs": [
        {
          "internalType": "contract IERC20",
          "name": "",
          "type": "address"
        }
      ],
      "stateMutability": "view",
      "type": "function"
    },
    {
      "inputs": [
        {
          "internalType": "address",
          "name": "newOwner",
          "type": "address"
        }
      ],
      "name": "transferOwnership",
      "outputs": [],
      "stateMutability": "nonpayable",
      "type": "function"
    },
    {
      "inputs": [
        {
          "internalType": "bytes32",
          "name": "newRoot",
          "type": "bytes32"
        }
      ],
      "name": "updateMerkleRoot",
      "outputs": [],
      "stateMutability": "nonpayable",
      "type": "function"
    },
    {
      "inputs": [
        {
          "internalType": "address",
          "name": "",
          "type": "address"
        }
      ],
      "name": "withdrawnAmount",
      "outputs": [
        {
          "internalType": "uint256",
          "name": "",
          "type": "uint256"
        }
      ],
      "stateMutability": "view",
      "type": "function"
    },
    {
      "stateMutability": "payable",
      "type": "receive"
    }
  ],
  "bytecode": "0x60806040523480156200001157600080fd5b506040516200109a3803806200109a833981810160405281019062000037919062000278565b33600073ffffffffffffffffffffffffffffffffffffffff168173ffffffffffffffffffffffffffffffffffffffff1603620000ad5760006040517f1e4fbdf7000000000000000000000000000000000000000000000000000000008152600401620000a49190620002d0565b60405180910390fd5b620000be816200010f60201b60201c565b508160018190555080600360006101000a81548173ffffffffffffffffffffffffffffffffffffffff021916908373ffffffffffffffffffffffffffffffffffffffff1602179055505050620002ed565b60008060009054906101000a900473ffffffffffffffffffffffffffffffffffffffff169050816000806101000a81548173ffffffffffffffffffffffffffffffffffffffff021916908373ffffffffffffffffffffffffffffffffffffffff1602179055508173ffffffffffffffffffffffffffffffffffffffff168173ffffffffffffffffffffffffffffffffffffffff167f8be0079c531659141344cd1fd0a4f28419497f9722a3daafe3b4186f6b6457e060405160405180910390a35050565b600080fd5b6000819050919050565b620001ed81620001d8565b8114620001f957600080fd5b50565b6000815190506200020d81620001e2565b92915050565b600073ffffffffffffffffffffffffffffffffffffffff82169050919050565b6000620002408262000213565b9050919050565b620002528162000233565b81146200025e57600080fd5b50565b600081519050620002728162000247565b92915050565b60008060408385031215620002925762000291620001d3565b5b6000620002a285828601620001fc565b9250506020620002b58582860162000261565b9150509250929050565b620002ca8162000233565b82525050565b6000602082019050620002e76000830184620002bf565b92915050565b610d9d80620002fd6000396000f3fe6080604052600436106100745760003560e01c8063715018a61161004e578063715018a61461010f5780638da5cb5b14610126578063f2fde38b14610151578063fc0c546a1461017a5761007b565b806310b20139146100805780633b439351146100bd5780634783f0ef146100e65761007b565b3661007b57005b600080fd5b34801561008c57600080fd5b506100a760048036038101906100a291906107f1565b6101a5565b6040516100b49190610837565b60405180910390f35b3480156100c957600080fd5b506100e460048036038101906100df91906108e3565b6101bd565b005b3480156100f257600080fd5b5061010d60048036038101906101089190610979565b61046b565b005b34801561011b57600080fd5b5061012461047d565b005b34801561013257600080fd5b5061013b610491565b60405161014891906109b5565b60405180910390f35b34801561015d57600080fd5b50610178600480360381019061017391906107f1565b6104ba565b005b34801561018657600080fd5b5061018f610540565b60405161019c9190610a2f565b60405180910390f35b60026020528060005260406000206000915090505481565b600033826040516020016101d2929190610a4a565b604051602081830303815290604052805190602001206040516020016101f89190610a94565b60405160208183030381529060405280519060200120905061025e848480806020026020016040519081016040528093929190818152602001838360200280828437600081840152601f19601f8201169050808301925050505050505060015483610566565b61029d576040517f08c379a000000000000000000000000000000000000000000000000000000000815260040161029490610b0c565b60405180910390fd5b6000600260003373ffffffffffffffffffffffffffffffffffffffff1673ffffffffffffffffffffffffffffffffffffffff16815260200190815260200160002054836102ea9190610b5b565b90506000811161032f576040517f08c379a000000000000000000000000000000000000000000000000000000000815260040161032690610bdb565b60405180910390fd5b80600260003373ffffffffffffffffffffffffffffffffffffffff1673ffffffffffffffffffffffffffffffffffffffff168152602001908152602001600020600082825461037e9190610bfb565b92505081905550600360009054906101000a900473ffffffffffffffffffffffffffffffffffffffff1673ffffffffffffffffffffffffffffffffffffffff1663a9059cbb33836040518363ffffffff1660e01b81526004016103e2929190610a4a565b6020604051808303816000875af1158015610401573d6000803e3d6000fd5b505050506040513d601f19601f820116820180604052508101906104259190610c67565b610464576040517f08c379a000000000000000000000000000000000000000000000000000000000815260040161045b90610ce0565b60405180910390fd5b5050505050565b61047361057d565b8060018190555050565b61048561057d565b61048f6000610604565b565b60008060009054906101000a900473ffffffffffffffffffffffffffffffffffffffff16905090565b6104c261057d565b600073ffffffffffffffffffffffffffffffffffffffff168173ffffffffffffffffffffffffffffffffffffffff16036105345760006040517f1e4fbdf700000000000000000000000000000000000000000000000000000000815260040161052b91906109b5565b60405180910390fd5b61053d81610604565b50565b600360009054906101000a900473ffffffffffffffffffffffffffffffffffffffff1681565b60008261057385846106c8565b1490509392505050565b610585610718565b73ffffffffffffffffffffffffffffffffffffffff166105a3610491565b73ffffffffffffffffffffffffffffffffffffffff1614610602576105c6610718565b6040517f118cdaa70000000000000000000000000000000000000000000000000000000081526004016105f991906109b5565b60405180910390fd5b565b60008060009054906101000a900473ffffffffffffffffffffffffffffffffffffffff169050816000806101000a81548173ffffffffffffffffffffffffffffffffffffffff021916908373ffffffffffffffffffffffffffffffffffffffff1602179055508173ffffffffffffffffffffffffffffffffffffffff168173ffffffffffffffffffffffffffffffffffffffff167f8be0079c531659141344cd1fd0a4f28419497f9722a3daafe3b4186f6b6457e060405160405180910390a35050565b60008082905060005b845181101561070d576106fe828683815181106106f1576106f0610d00565b5b6020026020010151610720565b915080806001019150506106d1565b508091505092915050565b600033905090565b600081831061075757818360405160200161073c929190610d3e565b60405160208183030381529060405280519060200120610781565b828260405160200161076a929190610d3e565b604051602081830303815290604052805190602001205b905092915050565b600080fd5b600080fd5b600073ffffffffffffffffffffffffffffffffffffffff82169050919050565b60006107be82610793565b9050919050565b6107ce816107b3565b81146107d957600080fd5b50565b6000813590506107eb816107c5565b92915050565b60006020828403121561080757610806610789565b5b6000610815848285016107dc565b91505092915050565b6000819050919050565b6108318161081e565b82525050565b600060208201905061084c6000830184610828565b92915050565b600080fd5b600080fd5b600080fd5b60008083601f84011261087757610876610852565b5b8235905067ffffffffffffffff81111561089457610893610857565b5b6020830191508360208202830111156108b0576108af61085c565b5b9250929050565b6108c08161081e565b81146108cb57600080fd5b50565b6000813590506108dd816108b7565b92915050565b6000806000604084860312156108fc576108fb610789565b5b600084013567ffffffffffffffff81111561091a5761091961078e565b5b61092686828701610861565b93509350506020610939868287016108ce565b9150509250925092565b6000819050919050565b61095681610943565b811461096157600080fd5b50565b6000813590506109738161094d565b92915050565b60006020828403121561098f5761098e610789565b5b600061099d84828501610964565b91505092915050565b6109af816107b3565b82525050565b60006020820190506109ca60008301846109a6565b92915050565b6000819050919050565b60006109f56109f06109eb84610793565b6109d0565b610793565b9050919050565b6000610a07826109da565b9050919050565b6000610a19826109fc565b9050919050565b610a2981610a0e565b82525050565b6000602082019050610a446000830184610a20565b92915050565b6000604082019050610a5f60008301856109a6565b610a6c6020830184610828565b9392505050565b6000819050919050565b610a8e610a8982610943565b610a73565b82525050565b6000610aa08284610a7d565b60208201915081905092915050565b600082825260208201905092915050565b7f496e76616c6964204d65726b6c652070726f6f66000000000000000000000000600082015250565b6000610af6601483610aaf565b9150610b0182610ac0565b602082019050919050565b60006020820190508181036000830152610b2581610ae9565b9050919050565b7f4e487b7100000000000000000000000000000000000000000000000000000000600052601160045260246000fd5b6000610b668261081e565b9150610b718361081e565b9250828203905081811115610b8957610b88610b2c565b5b92915050565b7f4e6f206d6f726520746f6b656e7320746f20636c61696d000000000000000000600082015250565b6000610bc5601783610aaf565b9150610bd082610b8f565b602082019050919050565b60006020820190508181036000830152610bf481610bb8565b9050919050565b6000610c068261081e565b9150610c118361081e565b9250828201905080821115610c2957610c28610b2c565b5b92915050565b60008115159050919050565b610c4481610c2f565b8114610c4f57600080fd5b50565b600081519050610c6181610c3b565b92915050565b600060208284031215610c7d57610c7c610789565b5b6000610c8b84828501610c52565b91505092915050565b7f546f6b656e207472616e73666572206661696c65640000000000000000000000600082015250565b6000610cca601583610aaf565b9150610cd582610c94565b602082019050919050565b60006020820190508181036000830152610cf981610cbd565b9050919050565b7f4e487b7100000000000000000000000000000000000000000000000000000000600052603260045260246000fd5b610d3881610943565b82525050565b6000604082019050610d536000830185610d2f565b610d606020830184610d2f565b939250505056fea2646970667358221220b14af30808c8609f9bb4146f27f514db9c970fd939c12721736874fbf8ede99b64736f6c63430008180033",
  "linkReferences": {},
  "deployedLinkReferences": {}
}