{
  "_format": "hh-sol-artifact-1",
  "contractName": "Airdrop",
  "sourceName": "contracts/Airdrop.sol",
  "abi": [
    {
      "inputs": [
        {
          "internalType": "bytes32",
          "name": "_merkleRoot",
          "type": "bytes32"
        },
        {
          "internalType": "address",
          "name": "_tokenAddress",
          "type": "address"
        }
      ],
      "stateMutability": "nonpayable",
      "type": "constructor"
    },
    {
      "inputs": [],
      "name": "EnforcedPause",
      "type": "error"
    },
    {
      "inputs": [],
      "name": "ExpectedPause",
      "type": "error"
    },
    {
      "inputs": [
        {
          "internalType": "address",
          "name": "owner",
          "type": "address"
        }
      ],
      "name": "OwnableInvalidOwner",
      "type": "error"
    },
    {
      "inputs": [
        {
          "internalType": "address",
          "name": "account",
          "type": "address"
        }
      ],
      "name": "OwnableUnauthorizedAccount",
      "type": "error"
    },
    {
      "anonymous": false,
      "inputs": [
        {
          "indexed": true,
          "internalType": "address",
          "name": "account",
          "type": "address"
        },
        {
          "indexed": false,
          "internalType": "uint256",
          "name": "amount",
          "type": "uint256"
        }
      ],
      "name": "Claimed",
      "type": "event"
    },
    {
      "anonymous": false,
      "inputs": [
        {
          "indexed": true,
          "internalType": "address",
          "name": "previousOwner",
          "type": "address"
        },
        {
          "indexed": true,
          "internalType": "address",
          "name": "newOwner",
          "type": "address"
        }
      ],
      "name": "OwnershipTransferred",
      "type": "event"
    },
    {
      "anonymous": false,
      "inputs": [
        {
          "indexed": false,
          "internalType": "address",
          "name": "account",
          "type": "address"
        }
      ],
      "name": "Paused",
      "type": "event"
    },
    {
      "anonymous": false,
      "inputs": [
        {
          "indexed": false,
          "internalType": "address",
          "name": "account",
          "type": "address"
        }
      ],
      "name": "Unpaused",
      "type": "event"
    },
    {
      "inputs": [
        {
          "internalType": "bytes32[]",
          "name": "merkleProof",
          "type": "bytes32[]"
        },
        {
          "internalType": "uint256",
          "name": "claimableAmount",
          "type": "uint256"
        },
        {
          "internalType": "uint256",
          "name": "claimAmount",
          "type": "uint256"
        }
      ],
      "name": "claim",
      "outputs": [],
      "stateMutability": "nonpayable",
      "type": "function"
    },
    {
      "inputs": [
        {
          "internalType": "address",
          "name": "",
          "type": "address"
        }
      ],
      "name": "claimedAmount",
      "outputs": [
        {
          "internalType": "uint256",
          "name": "",
          "type": "uint256"
        }
      ],
      "stateMutability": "view",
      "type": "function"
    },
    {
      "inputs": [
        {
          "internalType": "address",
          "name": "_address",
          "type": "address"
        }
      ],
      "name": "getClaimedAmount",
      "outputs": [
        {
          "internalType": "uint256",
          "name": "",
          "type": "uint256"
        }
      ],
      "stateMutability": "view",
      "type": "function"
    },
    {
      "inputs": [],
      "name": "merkleRoot",
      "outputs": [
        {
          "internalType": "bytes32",
          "name": "",
          "type": "bytes32"
        }
      ],
      "stateMutability": "view",
      "type": "function"
    },
    {
      "inputs": [],
      "name": "owner",
      "outputs": [
        {
          "internalType": "address",
          "name": "",
          "type": "address"
        }
      ],
      "stateMutability": "view",
      "type": "function"
    },
    {
      "inputs": [],
      "name": "pause",
      "outputs": [],
      "stateMutability": "nonpayable",
      "type": "function"
    },
    {
      "inputs": [],
      "name": "paused",
      "outputs": [
        {
          "internalType": "bool",
          "name": "",
          "type": "bool"
        }
      ],
      "stateMutability": "view",
      "type": "function"
    },
    {
      "inputs": [],
      "name": "renounceOwnership",
      "outputs": [],
      "stateMutability": "nonpayable",
      "type": "function"
    },
    {
      "inputs": [],
      "name": "token",
      "outputs": [
        {
          "internalType": "contract IERC20",
          "name": "",
          "type": "address"
        }
      ],
      "stateMutability": "view",
      "type": "function"
    },
    {
      "inputs": [],
      "name": "totalClaimedAmount",
      "outputs": [
        {
          "internalType": "uint256",
          "name": "",
          "type": "uint256"
        }
      ],
      "stateMutability": "view",
      "type": "function"
    },
    {
      "inputs": [
        {
          "internalType": "address",
          "name": "newOwner",
          "type": "address"
        }
      ],
      "name": "transferOwnership",
      "outputs": [],
      "stateMutability": "nonpayable",
      "type": "function"
    },
    {
      "inputs": [],
      "name": "unpause",
      "outputs": [],
      "stateMutability": "nonpayable",
      "type": "function"
    },
    {
      "inputs": [
        {
          "internalType": "bytes32",
          "name": "newRoot",
          "type": "bytes32"
        }
      ],
      "name": "updateMerkleRoot",
      "outputs": [],
      "stateMutability": "nonpayable",
      "type": "function"
    },
    {
      "stateMutability": "payable",
      "type": "receive"
    }
  ],
  "bytecode": "0x60806040523480156200001157600080fd5b506040516200163a3803806200163a833981810160405281019062000037919062000292565b33600073ffffffffffffffffffffffffffffffffffffffff168173ffffffffffffffffffffffffffffffffffffffff1603620000ad5760006040517f1e4fbdf7000000000000000000000000000000000000000000000000000000008152600401620000a49190620002ea565b60405180910390fd5b620000be816200012960201b60201c565b5060008060146101000a81548160ff0219169083151502179055508160018190555080600360006101000a81548173ffffffffffffffffffffffffffffffffffffffff021916908373ffffffffffffffffffffffffffffffffffffffff160217905550505062000307565b60008060009054906101000a900473ffffffffffffffffffffffffffffffffffffffff169050816000806101000a81548173ffffffffffffffffffffffffffffffffffffffff021916908373ffffffffffffffffffffffffffffffffffffffff1602179055508173ffffffffffffffffffffffffffffffffffffffff168173ffffffffffffffffffffffffffffffffffffffff167f8be0079c531659141344cd1fd0a4f28419497f9722a3daafe3b4186f6b6457e060405160405180910390a35050565b600080fd5b6000819050919050565b6200020781620001f2565b81146200021357600080fd5b50565b6000815190506200022781620001fc565b92915050565b600073ffffffffffffffffffffffffffffffffffffffff82169050919050565b60006200025a826200022d565b9050919050565b6200026c816200024d565b81146200027857600080fd5b50565b6000815190506200028c8162000261565b92915050565b60008060408385031215620002ac57620002ab620001ed565b5b6000620002bc8582860162000216565b9250506020620002cf858286016200027b565b9150509250929050565b620002e4816200024d565b82525050565b6000602082019050620003016000830184620002d9565b92915050565b61132380620003176000396000f3fe6080604052600436106100c65760003560e01c80638456cb591161007f5780639661cb0d116100595780639661cb0d1461023b578063d4a6da0914610266578063f2fde38b1461028f578063fc0c546a146102b8576100cd565b80638456cb59146101bc5780638da5cb5b146101d35780638df40be8146101fe576100cd565b806304e86903146100d25780632eb4a7ab1461010f5780633f4ba83a1461013a5780634783f0ef146101515780635c975abb1461017a578063715018a6146101a5576100cd565b366100cd57005b600080fd5b3480156100de57600080fd5b506100f960048036038101906100f49190610bfa565b6102e3565b6040516101069190610c40565b60405180910390f35b34801561011b57600080fd5b506101246102fb565b6040516101319190610c74565b60405180910390f35b34801561014657600080fd5b5061014f610301565b005b34801561015d57600080fd5b5061017860048036038101906101739190610cbb565b610313565b005b34801561018657600080fd5b5061018f610325565b60405161019c9190610d03565b60405180910390f35b3480156101b157600080fd5b506101ba61033b565b005b3480156101c857600080fd5b506101d161034f565b005b3480156101df57600080fd5b506101e8610361565b6040516101f59190610d2d565b60405180910390f35b34801561020a57600080fd5b5061022560048036038101906102209190610bfa565b61038a565b6040516102329190610c40565b60405180910390f35b34801561024757600080fd5b506102506103d3565b60405161025d9190610c40565b60405180910390f35b34801561027257600080fd5b5061028d60048036038101906102889190610dd9565b6103d9565b005b34801561029b57600080fd5b506102b660048036038101906102b19190610bfa565b61077d565b005b3480156102c457600080fd5b506102cd610803565b6040516102da9190610eac565b60405180910390f35b60026020528060005260406000206000915090505481565b60015481565b610309610829565b6103116108b0565b565b61031b610829565b8060018190555050565b60008060149054906101000a900460ff16905090565b610343610829565b61034d6000610912565b565b610357610829565b61035f6109d6565b565b60008060009054906101000a900473ffffffffffffffffffffffffffffffffffffffff16905090565b6000600260008373ffffffffffffffffffffffffffffffffffffffff1673ffffffffffffffffffffffffffffffffffffffff168152602001908152602001600020549050919050565b60045481565b6103e1610a39565b81811115610424576040517f08c379a000000000000000000000000000000000000000000000000000000000815260040161041b90610f4a565b60405180910390fd5b60003383604051602001610439929190610f6a565b6040516020818303038152906040528051906020012060405160200161045f9190610fb4565b6040516020818303038152906040528051906020012090506104c5858580806020026020016040519081016040528093929190818152602001838360200280828437600081840152601f19601f8201169050808301925050505050505060015483610a7a565b610504576040517f08c379a00000000000000000000000000000000000000000000000000000000081526004016104fb9061101b565b60405180910390fd5b6000600260003373ffffffffffffffffffffffffffffffffffffffff1673ffffffffffffffffffffffffffffffffffffffff1681526020019081526020016000205484610551919061106a565b905080831115610596576040517f08c379a000000000000000000000000000000000000000000000000000000000815260040161058d90611110565b60405180910390fd5b600081116105d9576040517f08c379a00000000000000000000000000000000000000000000000000000000081526004016105d09061117c565b60405180910390fd5b82600260003373ffffffffffffffffffffffffffffffffffffffff1673ffffffffffffffffffffffffffffffffffffffff1681526020019081526020016000206000828254610628919061119c565b925050819055508260046000828254610641919061119c565b92505081905550600360009054906101000a900473ffffffffffffffffffffffffffffffffffffffff1673ffffffffffffffffffffffffffffffffffffffff1663a9059cbb33856040518363ffffffff1660e01b81526004016106a5929190610f6a565b6020604051808303816000875af11580156106c4573d6000803e3d6000fd5b505050506040513d601f19601f820116820180604052508101906106e891906111fc565b610727576040517f08c379a000000000000000000000000000000000000000000000000000000000815260040161071e90611275565b60405180910390fd5b3373ffffffffffffffffffffffffffffffffffffffff167fd8138f8a3f377c5259ca548e70e4c2de94f129f5a11036a15b69513cba2b426a8460405161076d9190610c40565b60405180910390a2505050505050565b610785610829565b600073ffffffffffffffffffffffffffffffffffffffff168173ffffffffffffffffffffffffffffffffffffffff16036107f75760006040517f1e4fbdf70000000000000000000000000000000000000000000000000000000081526004016107ee9190610d2d565b60405180910390fd5b61080081610912565b50565b600360009054906101000a900473ffffffffffffffffffffffffffffffffffffffff1681565b610831610a91565b73ffffffffffffffffffffffffffffffffffffffff1661084f610361565b73ffffffffffffffffffffffffffffffffffffffff16146108ae57610872610a91565b6040517f118cdaa70000000000000000000000000000000000000000000000000000000081526004016108a59190610d2d565b60405180910390fd5b565b6108b8610a99565b60008060146101000a81548160ff0219169083151502179055507f5db9ee0a495bf2e6ff9c91a7834c1ba4fdd244a5e8aa4e537bd38aeae4b073aa6108fb610a91565b6040516109089190610d2d565b60405180910390a1565b60008060009054906101000a900473ffffffffffffffffffffffffffffffffffffffff169050816000806101000a81548173ffffffffffffffffffffffffffffffffffffffff021916908373ffffffffffffffffffffffffffffffffffffffff1602179055508173ffffffffffffffffffffffffffffffffffffffff168173ffffffffffffffffffffffffffffffffffffffff167f8be0079c531659141344cd1fd0a4f28419497f9722a3daafe3b4186f6b6457e060405160405180910390a35050565b6109de610a39565b6001600060146101000a81548160ff0219169083151502179055507f62e78cea01bee320cd4e420270b5ea74000d11b0c9f74754ebdbfc544b05a258610a22610a91565b604051610a2f9190610d2d565b60405180910390a1565b610a41610325565b15610a78576040517fd93c066500000000000000000000000000000000000000000000000000000000815260040160405180910390fd5b565b600082610a878584610ad9565b1490509392505050565b600033905090565b610aa1610325565b610ad7576040517f8dfc202b00000000000000000000000000000000000000000000000000000000815260040160405180910390fd5b565b60008082905060005b8451811015610b1e57610b0f82868381518110610b0257610b01611295565b5b6020026020010151610b29565b91508080600101915050610ae2565b508091505092915050565b6000818310610b60578183604051602001610b459291906112c4565b60405160208183030381529060405280519060200120610b8a565b8282604051602001610b739291906112c4565b604051602081830303815290604052805190602001205b905092915050565b600080fd5b600080fd5b600073ffffffffffffffffffffffffffffffffffffffff82169050919050565b6000610bc782610b9c565b9050919050565b610bd781610bbc565b8114610be257600080fd5b50565b600081359050610bf481610bce565b92915050565b600060208284031215610c1057610c0f610b92565b5b6000610c1e84828501610be5565b91505092915050565b6000819050919050565b610c3a81610c27565b82525050565b6000602082019050610c556000830184610c31565b92915050565b6000819050919050565b610c6e81610c5b565b82525050565b6000602082019050610c896000830184610c65565b92915050565b610c9881610c5b565b8114610ca357600080fd5b50565b600081359050610cb581610c8f565b92915050565b600060208284031215610cd157610cd0610b92565b5b6000610cdf84828501610ca6565b91505092915050565b60008115159050919050565b610cfd81610ce8565b82525050565b6000602082019050610d186000830184610cf4565b92915050565b610d2781610bbc565b82525050565b6000602082019050610d426000830184610d1e565b92915050565b600080fd5b600080fd5b600080fd5b60008083601f840112610d6d57610d6c610d48565b5b8235905067ffffffffffffffff811115610d8a57610d89610d4d565b5b602083019150836020820283011115610da657610da5610d52565b5b9250929050565b610db681610c27565b8114610dc157600080fd5b50565b600081359050610dd381610dad565b92915050565b60008060008060608587031215610df357610df2610b92565b5b600085013567ffffffffffffffff811115610e1157610e10610b97565b5b610e1d87828801610d57565b94509450506020610e3087828801610dc4565b9250506040610e4187828801610dc4565b91505092959194509250565b6000819050919050565b6000610e72610e6d610e6884610b9c565b610e4d565b610b9c565b9050919050565b6000610e8482610e57565b9050919050565b6000610e9682610e79565b9050919050565b610ea681610e8b565b82525050565b6000602082019050610ec16000830184610e9d565b92915050565b600082825260208201905092915050565b7f5061727469616c20616d6f756e742069732067726561746572207468616e207460008201527f6f74616c20616d6f756e74000000000000000000000000000000000000000000602082015250565b6000610f34602b83610ec7565b9150610f3f82610ed8565b604082019050919050565b60006020820190508181036000830152610f6381610f27565b9050919050565b6000604082019050610f7f6000830185610d1e565b610f8c6020830184610c31565b9392505050565b6000819050919050565b610fae610fa982610c5b565b610f93565b82525050565b6000610fc08284610f9d565b60208201915081905092915050565b7f496e76616c6964204d65726b6c652070726f6f66000000000000000000000000600082015250565b6000611005601483610ec7565b915061101082610fcf565b602082019050919050565b6000602082019050818103600083015261103481610ff8565b9050919050565b7f4e487b7100000000000000000000000000000000000000000000000000000000600052601160045260246000fd5b600061107582610c27565b915061108083610c27565b92508282039050818111156110985761109761103b565b5b92915050565b7f5061727469616c20616d6f756e742069732067726561746572207468616e207260008201527f656d61696e696e6720616d6f756e740000000000000000000000000000000000602082015250565b60006110fa602f83610ec7565b91506111058261109e565b604082019050919050565b60006020820190508181036000830152611129816110ed565b9050919050565b7f4e6f206d6f726520746f6b656e7320746f20636c61696d000000000000000000600082015250565b6000611166601783610ec7565b915061117182611130565b602082019050919050565b6000602082019050818103600083015261119581611159565b9050919050565b60006111a782610c27565b91506111b283610c27565b92508282019050808211156111ca576111c961103b565b5b92915050565b6111d981610ce8565b81146111e457600080fd5b50565b6000815190506111f6816111d0565b92915050565b60006020828403121561121257611211610b92565b5b6000611220848285016111e7565b91505092915050565b7f546f6b656e207472616e73666572206661696c65640000000000000000000000600082015250565b600061125f601583610ec7565b915061126a82611229565b602082019050919050565b6000602082019050818103600083015261128e81611252565b9050919050565b7f4e487b7100000000000000000000000000000000000000000000000000000000600052603260045260246000fd5b60006040820190506112d96000830185610c65565b6112e66020830184610c65565b939250505056fea26469706673582212201426b5e72c66851132309160d7314431f4ee753ef828742ddd35b17bb4af6a6b64736f6c63430008180033",
  "linkReferences": {},
  "deployedLinkReferences": {}
}